{
  "contractName": "Casino",
  "abi": [
    {
      "inputs": [
        {
          "name": "_minimumBet",
          "type": "uint256"
        },
        {
          "name": "_maxNumberOfBets",
          "type": "uint256"
        }
      ],
      "payable": false,
      "stateMutability": "nonpayable",
      "type": "constructor"
    },
    {
      "anonymous": false,
      "inputs": [
        {
          "indexed": false,
          "name": "queryId",
          "type": "bytes32"
        }
      ],
      "name": "GenerateNumberWinner",
      "type": "event"
    },
    {
      "anonymous": false,
      "inputs": [
        {
          "indexed": false,
          "name": "_queryId",
          "type": "bytes32"
        },
        {
          "indexed": false,
          "name": "_result",
          "type": "string"
        },
        {
          "indexed": false,
          "name": "_proof",
          "type": "bytes"
        }
      ],
      "name": "CallbackEvent",
      "type": "event"
    },
    {
      "anonymous": false,
      "inputs": [
        {
          "indexed": false,
          "name": "numberWinner",
          "type": "uint256"
        }
      ],
      "name": "Winner",
      "type": "event"
    },
    {
      "constant": false,
      "inputs": [
        {
          "name": "numberToBet",
          "type": "uint256"
        }
      ],
      "name": "bet",
      "outputs": [],
      "payable": true,
      "stateMutability": "payable",
      "type": "function"
    },
    {
      "constant": true,
      "inputs": [
        {
          "name": "player",
          "type": "address"
        }
      ],
      "name": "checkPlayerExists",
      "outputs": [
        {
          "name": "",
          "type": "bool"
        }
      ],
      "payable": false,
      "stateMutability": "view",
      "type": "function"
    },
    {
      "constant": false,
      "inputs": [],
      "name": "generateNumberWinner",
      "outputs": [],
      "payable": true,
      "stateMutability": "payable",
      "type": "function"
    },
    {
      "constant": false,
      "inputs": [
        {
          "name": "myid",
          "type": "bytes32"
        },
        {
          "name": "result",
          "type": "string"
        }
      ],
      "name": "__callback",
      "outputs": [],
      "payable": false,
      "stateMutability": "nonpayable",
      "type": "function"
    },
    {
      "constant": false,
      "inputs": [
        {
          "name": "_queryId",
          "type": "bytes32"
        },
        {
          "name": "_result",
          "type": "string"
        },
        {
          "name": "_proof",
          "type": "bytes"
        }
      ],
      "name": "__callback",
      "outputs": [],
      "payable": false,
      "stateMutability": "nonpayable",
      "type": "function"
    },
    {
      "constant": false,
      "inputs": [],
      "name": "distributePrizes",
      "outputs": [],
      "payable": false,
      "stateMutability": "nonpayable",
      "type": "function"
    }
  ],
  "bytecode": "0x606060405234156200001057600080fd5b60405160408062004ac18339810160405280805190602001909190805190602001909190505033600560006101000a81548173ffffffffffffffffffffffffffffffffffffffff021916908373ffffffffffffffffffffffffffffffffffffffff1602179055506000600781905550600060098190555060008211156200009957816006819055505b600081118015620000ab5750600a8111155b15620000b957806008819055505b733dcb1beed059bc733192e7b9a62af4c62836d3da6000806101000a81548173ffffffffffffffffffffffffffffffffffffffff021916908373ffffffffffffffffffffffffffffffffffffffff1602179055506200014f60307f010000000000000000000000000000000000000000000000000000000000000002620001576401000000000262003bc9176401000000009004565b505062000b6a565b60008060009054906101000a900473ffffffffffffffffffffffffffffffffffffffff1673ffffffffffffffffffffffffffffffffffffffff161480620001dd57506000620001db6000809054906101000a900473ffffffffffffffffffffffffffffffffffffffff16620004de6401000000000262002af6176401000000009004565b145b156200020557620002036000620004e96401000000000262002b01176401000000009004565b505b6000809054906101000a900473ffffffffffffffffffffffffffffffffffffffff1673ffffffffffffffffffffffffffffffffffffffff166338cc48316000604051602001526040518163ffffffff167c0100000000000000000000000000000000000000000000000000000000028152600401602060405180830381600087803b15156200029357600080fd5b6102c65a03f11515620002a557600080fd5b5050506040518051905073ffffffffffffffffffffffffffffffffffffffff16600160009054906101000a900473ffffffffffffffffffffffffffffffffffffffff1673ffffffffffffffffffffffffffffffffffffffff16141515620003f1576000809054906101000a900473ffffffffffffffffffffffffffffffffffffffff1673ffffffffffffffffffffffffffffffffffffffff166338cc48316000604051602001526040518163ffffffff167c0100000000000000000000000000000000000000000000000000000000028152600401602060405180830381600087803b15156200039457600080fd5b6102c65a03f11515620003a657600080fd5b50505060405180519050600160006101000a81548173ffffffffffffffffffffffffffffffffffffffff021916908373ffffffffffffffffffffffffffffffffffffffff1602179055505b600160009054906101000a900473ffffffffffffffffffffffffffffffffffffffff1673ffffffffffffffffffffffffffffffffffffffff1663688dcfd7826040518263ffffffff167c010000000000000000000000000000000000000000000000000000000002815260040180827effffffffffffffffffffffffffffffffffffffffffffffffffffffffffffff19167effffffffffffffffffffffffffffffffffffffffffffffffffffffffffffff19168152602001915050600060405180830381600087803b1515620004c657600080fd5b6102c65a03f11515620004d857600080fd5b50505050565b6000813b9050919050565b6000620005096200051064010000000002620030ba176401000000009004565b9050919050565b60008062000546731d3b2638a7cc9f2cb3d298a3da7a90b67e5506ed620004de6401000000000262002af6176401000000009004565b1115620005ff57731d3b2638a7cc9f2cb3d298a3da7a90b67e5506ed6000806101000a81548173ffffffffffffffffffffffffffffffffffffffff021916908373ffffffffffffffffffffffffffffffffffffffff160217905550620005f56040805190810160405280600b81526020017f6574685f6d61696e6e657400000000000000000000000000000000000000000081525062000a9f6401000000000262003a34176401000000009004565b6001905062000a9c565b60006200063473c03a2615d5efaf5f49f60b7bb6583eaec212fdf1620004de6401000000000262002af6176401000000009004565b1115620006ed5773c03a2615d5efaf5f49f60b7bb6583eaec212fdf16000806101000a81548173ffffffffffffffffffffffffffffffffffffffff021916908373ffffffffffffffffffffffffffffffffffffffff160217905550620006e36040805190810160405280600c81526020017f6574685f726f707374656e33000000000000000000000000000000000000000081525062000a9f6401000000000262003a34176401000000009004565b6001905062000a9c565b60006200072273b7a07bcf2ba2f2703b24c0691b5278999c59ac7e620004de6401000000000262002af6176401000000009004565b1115620007db5773b7a07bcf2ba2f2703b24c0691b5278999c59ac7e6000806101000a81548173ffffffffffffffffffffffffffffffffffffffff021916908373ffffffffffffffffffffffffffffffffffffffff160217905550620007d16040805190810160405280600981526020017f6574685f6b6f76616e000000000000000000000000000000000000000000000081525062000a9f6401000000000262003a34176401000000009004565b6001905062000a9c565b60006200081073146500cfd35b22e4a392fe0adc06de1a1368ed48620004de6401000000000262002af6176401000000009004565b1115620008c95773146500cfd35b22e4a392fe0adc06de1a1368ed486000806101000a81548173ffffffffffffffffffffffffffffffffffffffff021916908373ffffffffffffffffffffffffffffffffffffffff160217905550620008bf6040805190810160405280600b81526020017f6574685f72696e6b65627900000000000000000000000000000000000000000081525062000a9f6401000000000262003a34176401000000009004565b6001905062000a9c565b6000620008fe736f485c8bf6fc43ea212e93bbf8ce046c7f1cb475620004de6401000000000262002af6176401000000009004565b11156200096357736f485c8bf6fc43ea212e93bbf8ce046c7f1cb4756000806101000a81548173ffffffffffffffffffffffffffffffffffffffff021916908373ffffffffffffffffffffffffffffffffffffffff1602179055506001905062000a9c565b6000620009987320e12a1f859b3feae5fb2a0a32c18f5a65555bbf620004de6401000000000262002af6176401000000009004565b1115620009fd577320e12a1f859b3feae5fb2a0a32c18f5a65555bbf6000806101000a81548173ffffffffffffffffffffffffffffffffffffffff021916908373ffffffffffffffffffffffffffffffffffffffff1602179055506001905062000a9c565b600062000a327351efaf4c8b3c9afbd5ab9f4bbc82784ab6ef8faa620004de6401000000000262002af6176401000000009004565b111562000a97577351efaf4c8b3c9afbd5ab9f4bbc82784ab6ef8faa6000806101000a81548173ffffffffffffffffffffffffffffffffffffffff021916908373ffffffffffffffffffffffffffffffffffffffff1602179055506001905062000a9c565b600090505b90565b806002908051906020019062000ab792919062000abb565b5050565b828054600181600116156101000203166002900490600052602060002090601f016020900481019282601f1062000afe57805160ff191683800117855562000b2f565b8280016001018555821562000b2f579182015b8281111562000b2e57825182559160200191906001019062000b11565b5b50905062000b3e919062000b42565b5090565b62000b6791905b8082111562000b6357600081600090555060010162000b49565b5090565b90565b613f478062000b7a6000396000f300606060405260043610610078576000357c0100000000000000000000000000000000000000000000000000000000900463ffffffff1680630a50e3611461007d57806327dc297e1461008757806338bbfa50146100f15780634081d9161461019e5780637365870b146101ef5780637ce52eb614610207575b600080fd5b61008561021c565b005b341561009257600080fd5b6100ef60048080356000191690602001909190803590602001908201803590602001908080601f01602080910402602001604051908101604052809392919081815260200183838082843782019150505050505091905050610295565b005b34156100fc57600080fd5b61019c60048080356000191690602001909190803590602001908201803590602001908080601f0160208091040260200160405190810160405280939291908181526020018383808284378201915050505050509190803590602001908201803590602001908080601f016020809104026020016040519081016040528093929190818152602001838380828437820191505050505050919050506102c7565b005b34156101a957600080fd5b6101d5600480803573ffffffffffffffffffffffffffffffffffffffff16906020019091905050610715565b604051808215151515815260200191505060405180910390f35b6102056004808035906020019091905050610760565b005b341561021257600080fd5b61021a6108a1565b005b6000806000806008546007541115151561023557600080fd5b600793506000925062030d40915061024e8385846109f2565b90507f92ec40a55565a89eec415854c3cf31502ac58d7e788da918105226cdb9c53bba8160405180826000191660001916815260200191505060405180910390a150505050565b6102c3828260006040518059106102a95750595b9080825280601f01601f19166020018201604052506102c7565b5050565b82828260007f4c000000000000000000000000000000000000000000000000000000000000008260008151811015156102fc57fe5b9060200101517f010000000000000000000000000000000000000000000000000000000000000090047f0100000000000000000000000000000000000000000000000000000000000000027effffffffffffffffffffffffffffffffffffffffffffffffffffffffffffff191614801561041057507f50000000000000000000000000000000000000000000000000000000000000008260018151811015156103a157fe5b9060200101517f010000000000000000000000000000000000000000000000000000000000000090047f0100000000000000000000000000000000000000000000000000000000000000027effffffffffffffffffffffffffffffffffffffffffffffffffffffffffffff1916145b80156104b9575060017f01000000000000000000000000000000000000000000000000000000000000000282600281518110151561044a57fe5b9060200101517f010000000000000000000000000000000000000000000000000000000000000090047f0100000000000000000000000000000000000000000000000000000000000000027effffffffffffffffffffffffffffffffffffffffffffffffffffffffffffff1916145b15156104c457600080fd5b6104d78285856104d2610f62565b61100a565b90508015156104e557600080fd5b600854600754111515156104f857600080fd5b7fb3e89d41ce99ed2471aa7a562b8454fdb86bdb1ea60d6b7e819bcbcadd2bc1db8787876040518084600019166000191681526020018060200180602001838103835285818151815260200191508051906020019080838360005b8381101561056e578082015181840152602081019050610553565b50505050905090810190601f16801561059b5780820380516001836020036101000a031916815260200191505b50838103825284818151815260200191508051906020019080838360005b838110156105d45780820151818401526020810190506105b9565b50505050905090810190601f1680156106015780820380516001836020036101000a031916815260200191505b509550505050505060405180910390a161061961176d565b73ffffffffffffffffffffffffffffffffffffffff163373ffffffffffffffffffffffffffffffffffffffff1614151561064f57fe5b6001600a876040518082805190602001908083835b6020831015156106895780518252602082019150602081019050602083039250610664565b6001836020036101000a0380198251168184511680821785525050505050509050019150506040518091039020600190048115156106c357fe5b0601600a819055507fbb3d2435d73ea44ac623b225c6c58edec133edbcc0326a6f1e9d1d5b438252ff600a546040518082815260200191505060405180910390a161070c6108a1565b50505050505050565b600080600b60008473ffffffffffffffffffffffffffffffffffffffff1673ffffffffffffffffffffffffffffffffffffffff16815260200190815260200160002054119050919050565b60085460075410151561076f57fe5b6000151561077c33610715565b151514151561078757fe5b600181101580156107995750600a8111155b15156107a157fe5b60065434101515156107af57fe5b80600b60003373ffffffffffffffffffffffffffffffffffffffff1673ffffffffffffffffffffffffffffffffffffffff16815260200190815260200160002081905550600c600082815260200190815260200160002080548060010182816108189190613a4e565b9160005260206000209001600033909190916101000a81548173ffffffffffffffffffffffffffffffffffffffff021916908373ffffffffffffffffffffffffffffffffffffffff1602179055505060016007600082825401925050819055503460096000828254019250508190555060085460075410151561089e5761089d61021c565b5b50565b6000806000600854600754111515156108b957600080fd5b600c6000600a548152602001908152602001600020805490506009548115156108de57fe5b049250600091505b600c6000600a548152602001908152602001600020805490508210156109a057600c6000600a5481526020019081526020016000208281548110151561092857fe5b906000526020600020900160009054906101000a900473ffffffffffffffffffffffffffffffffffffffff1673ffffffffffffffffffffffffffffffffffffffff166108fc849081150290604051600060405180830381858888f19350505050151561099357600080fd5b81806001019250506108e6565b600190505b600a811115156109dd576000600c6000838152602001908152602001600020816109cf9190613a7a565b5080806001019150506109a5565b60006009819055506000600781905550505050565b60006109fc613aa6565b610a04613aa6565b610a0c613aa6565b6000610a16613aa6565b610a1e613aa6565b610a26613aba565b6000610a30613aa6565b60008c118015610a41575060208c11155b1515610a4c57600080fd5b600a8d029c506001604051805910610a615750595b9080825280601f01601f191660200182016040525098508b7f010000000000000000000000000000000000000000000000000000000000000002896000815181101515610aaa57fe5b9060200101907effffffffffffffffffffffffffffffffffffffffffffffffffffffffffffff1916908160001a9053506020604051805910610ae95750595b9080825280601f01601f191660200182016040525097506020604051805910610b0f5750595b9080825280601f01601f19166020018201604052509650610b2e611a83565b9550602088524241186001430340186020890152602087528560208801526020604051805910610b5b5750595b9080825280601f01601f191660200182016040525094508c60208601526008604051805910610b875750595b9080825280601f01601f19166020018201604052509350610bae8560186008876000611d99565b506080604051908101604052808981526020018a8152602001888152602001868152509250610c136040805190810160405280600681526020017f72616e646f6d0000000000000000000000000000000000000000000000000000815250848d611dff565b91506008604051805910610c245750595b9080825280601f01601f1916602001820160405250905060208401517f0100000000000000000000000000000000000000000000000000000000000000810460278301537e01000000000000000000000000000000000000000000000000000000000000810460268301537d010000000000000000000000000000000000000000000000000000000000810460258301537c0100000000000000000000000000000000000000000000000000000000810460248301537b01000000000000000000000000000000000000000000000000000000810460238301537a010000000000000000000000000000000000000000000000000000810460228301537901000000000000000000000000000000000000000000000000008104602183015378010000000000000000000000000000000000000000000000008104602083015350610f4f8282856001600481101515610d7957fe5b60200201516002876000600481101515610d8f57fe5b60200201516000604051602001526040518082805190602001908083835b602083101515610dd25780518252602082019150602081019050602083039250610dad565b6001836020036101000a03801982511681845116808217855250505050505090500191505060206040518083038160008661646e5a03f11515610e1457600080fd5b505060405180519050876002600481101515610e2c57fe5b60200201516040518085805190602001908083835b602083101515610e665780518252602082019150602081019050602083039250610e41565b6001836020036101000a03801982511681845116808217855250505050505090500184805190602001908083835b602083101515610eb95780518252602082019150602081019050602083039250610e94565b6001836020036101000a038019825116818451168082178552505050505050905001836000191660001916815260200182805190602001908083835b602083101515610f1a5780518252602082019150602081019050602083039250610ef5565b6001836020036101000a038019825116818451168082178552505050505050905001945050505050604051809103902061218d565b8199505050505050505050509392505050565b610f6a613ae8565b60028054600181600116156101000203166002900480601f0160208091040260200160405190810160405280929190818152602001828054600181600116156101000203166002900480156110005780601f10610fd557610100808354040283529160200191611000565b820191906000526020600020905b815481529060010190602001808311610fe357829003601f168201915b5050505050905090565b600080611015613aa6565b61101d613aa6565b611025613aa6565b61102d613aa6565b600080611038613aa6565b602060028e604581518110151561104b57fe5b9060200101517f010000000000000000000000000000000000000000000000000000000000000090047f0100000000000000000000000000000000000000000000000000000000000000027f010000000000000000000000000000000000000000000000000000000000000090040160440101975060206040518059106110cf5750595b9080825280601f01601f191660200182016040525096506110f58d8960208a6000611d99565b5060028a8d6000604051602001526040518083805190602001908083835b6020831015156111385780518252602082019150602081019050602083039250611113565b6001836020036101000a03801982511681845116808217855250505050505090500182600019166000191681526020019250505060206040518083038160008661646e5a03f1151561118957600080fd5b505060405180519050604051808260001916600019168152602001915050604051809103902060001916876040518082805190602001908083835b6020831015156111e957805182526020820191506020810190506020830392506111c4565b6001836020036101000a03801982511681845116808217855250505050505090500191505060405180910390206000191614151561122a576000985061175d565b60028d600160498b010181518110151561124057fe5b9060200101517f010000000000000000000000000000000000000000000000000000000000000090047f0100000000000000000000000000000000000000000000000000000000000000027f01000000000000000000000000000000000000000000000000000000000000009004016040518059106112bc5750595b9080825280601f01601f191660200182016040525095506112e58d60498a018851896000611d99565b506113fd6002876000604051602001526040518082805190602001908083835b60208310151561132a5780518252602082019150602081019050602083039250611305565b6001836020036101000a03801982511681845116808217855250505050505090500191505060206040518083038160008661646e5a03f1151561136c57600080fd5b5050604051805190508c8f600860208d010181518110151561138a57fe5b9060200101517f010000000000000000000000000000000000000000000000000000000000000090047f0100000000000000000000000000000000000000000000000000000000000000027f010000000000000000000000000000000000000000000000000000000000000090046121b5565b151561140c576000985061175d565b602960405180591061141b5750595b9080825280601f01601f191660200182016040525094506114448d60208a016029886000611d99565b50604080518059106114535750595b9080825280601f01601f1916602001820160405250935060418651602960208b01010101925061148b8d604085036040876000611d99565b506002846000604051602001526040518082805190602001908083835b6020831015156114cd57805182526020820191506020810190506020830392506114a8565b6001836020036101000a03801982511681845116808217855250505050505090500191505060206040518083038160008661646e5a03f1151561150f57600080fd5b505060405180519050915084826040518083805190602001908083835b602083101515611551578051825260208201915060208101905060208303925061152c565b6001836020036101000a038019825116818451168082178552505050505050905001826000191660001916815260200192505050604051809103902060001916600360008e60001916600019168152602001908152602001600020546000191614156115db57600360008d60001916600019168152602001908152602001600020600090556115e4565b6000985061175d565b60496040518059106115f35750595b9080825280601f01601f191660200182016040525090506116198d896049846000611d99565b506116b06002826000604051602001526040518082805190602001908083835b60208310151561165e5780518252602082019150602081019050602083039250611639565b6001836020036101000a03801982511681845116808217855250505050505090500191505060206040518083038160008661646e5a03f115156116a057600080fd5b50506040518051905087866122cd565b15156116bf576000985061175d565b6000151560046000846000191660001916815260200190815260200160002060009054906101000a900460ff1615151415611731576116fe8d846125e4565b60046000846000191660001916815260200190815260200160002060006101000a81548160ff0219169083151502179055505b60046000836000191660001916815260200190815260200160002060009054906101000a900460ff1698505b5050505050505050949350505050565b6000806000809054906101000a900473ffffffffffffffffffffffffffffffffffffffff1673ffffffffffffffffffffffffffffffffffffffff1614806117dd575060006117db6000809054906101000a900473ffffffffffffffffffffffffffffffffffffffff16612af6565b145b156117ee576117ec6000612b01565b505b6000809054906101000a900473ffffffffffffffffffffffffffffffffffffffff1673ffffffffffffffffffffffffffffffffffffffff166338cc48316000604051602001526040518163ffffffff167c0100000000000000000000000000000000000000000000000000000000028152600401602060405180830381600087803b151561187b57600080fd5b6102c65a03f1151561188c57600080fd5b5050506040518051905073ffffffffffffffffffffffffffffffffffffffff16600160009054906101000a900473ffffffffffffffffffffffffffffffffffffffff1673ffffffffffffffffffffffffffffffffffffffff161415156119d5576000809054906101000a900473ffffffffffffffffffffffffffffffffffffffff1673ffffffffffffffffffffffffffffffffffffffff166338cc48316000604051602001526040518163ffffffff167c0100000000000000000000000000000000000000000000000000000000028152600401602060405180830381600087803b151561197957600080fd5b6102c65a03f1151561198a57600080fd5b50505060405180519050600160006101000a81548173ffffffffffffffffffffffffffffffffffffffff021916908373ffffffffffffffffffffffffffffffffffffffff1602179055505b600160009054906101000a900473ffffffffffffffffffffffffffffffffffffffff1673ffffffffffffffffffffffffffffffffffffffff1663c281d19e6000604051602001526040518163ffffffff167c0100000000000000000000000000000000000000000000000000000000028152600401602060405180830381600087803b1515611a6357600080fd5b6102c65a03f11515611a7457600080fd5b50505060405180519050905090565b6000806000809054906101000a900473ffffffffffffffffffffffffffffffffffffffff1673ffffffffffffffffffffffffffffffffffffffff161480611af357506000611af16000809054906101000a900473ffffffffffffffffffffffffffffffffffffffff16612af6565b145b15611b0457611b026000612b01565b505b6000809054906101000a900473ffffffffffffffffffffffffffffffffffffffff1673ffffffffffffffffffffffffffffffffffffffff166338cc48316000604051602001526040518163ffffffff167c0100000000000000000000000000000000000000000000000000000000028152600401602060405180830381600087803b1515611b9157600080fd5b6102c65a03f11515611ba257600080fd5b5050506040518051905073ffffffffffffffffffffffffffffffffffffffff16600160009054906101000a900473ffffffffffffffffffffffffffffffffffffffff1673ffffffffffffffffffffffffffffffffffffffff16141515611ceb576000809054906101000a900473ffffffffffffffffffffffffffffffffffffffff1673ffffffffffffffffffffffffffffffffffffffff166338cc48316000604051602001526040518163ffffffff167c0100000000000000000000000000000000000000000000000000000000028152600401602060405180830381600087803b1515611c8f57600080fd5b6102c65a03f11515611ca057600080fd5b50505060405180519050600160006101000a81548173ffffffffffffffffffffffffffffffffffffffff021916908373ffffffffffffffffffffffffffffffffffffffff1602179055505b600160009054906101000a900473ffffffffffffffffffffffffffffffffffffffff1673ffffffffffffffffffffffffffffffffffffffff1663abaa5f3e6000604051602001526040518163ffffffff167c0100000000000000000000000000000000000000000000000000000000028152600401602060405180830381600087803b1515611d7957600080fd5b6102c65a03f11515611d8a57600080fd5b50505060405180519050905090565b611da1613aa6565b6000806000848701925082865110151515611dbb57600080fd5b8760200191508460200190505b868860200101821015611df05781890151808288015250602082019150602081019050611dc8565b85935050505095945050505050565b6000611e09613afc565b60008060009054906101000a900473ffffffffffffffffffffffffffffffffffffffff1673ffffffffffffffffffffffffffffffffffffffff161480611e7857506000611e766000809054906101000a900473ffffffffffffffffffffffffffffffffffffffff16612af6565b145b15611e8957611e876000612b01565b505b6000809054906101000a900473ffffffffffffffffffffffffffffffffffffffff1673ffffffffffffffffffffffffffffffffffffffff166338cc48316000604051602001526040518163ffffffff167c0100000000000000000000000000000000000000000000000000000000028152600401602060405180830381600087803b1515611f1657600080fd5b6102c65a03f11515611f2757600080fd5b5050506040518051905073ffffffffffffffffffffffffffffffffffffffff16600160009054906101000a900473ffffffffffffffffffffffffffffffffffffffff1673ffffffffffffffffffffffffffffffffffffffff16141515612070576000809054906101000a900473ffffffffffffffffffffffffffffffffffffffff1673ffffffffffffffffffffffffffffffffffffffff166338cc48316000604051602001526040518163ffffffff167c0100000000000000000000000000000000000000000000000000000000028152600401602060405180830381600087803b151561201457600080fd5b6102c65a03f1151561202557600080fd5b50505060405180519050600160006101000a81548173ffffffffffffffffffffffffffffffffffffffff021916908373ffffffffffffffffffffffffffffffffffffffff1602179055505b600460405180591061207f5750595b9080825280602002602001820160405280156120b557816020015b6120a2613b10565b81526020019060019003908161209a5790505b5090508360006004811015156120c757fe5b60200201518160008151811015156120db57fe5b906020019060200201819052508360016004811015156120f757fe5b602002015181600181518110151561210b57fe5b9060200190602002018190525083600260048110151561212757fe5b602002015181600281518110151561213b57fe5b9060200190602002018190525083600360048110151561215757fe5b602002015181600381518110151561216b57fe5b90602001906020020181905250612183858285612b12565b9150509392505050565b8060036000846000191660001916815260200190815260200160002081600019169055505050565b6000806000600191508385511415156121cd57600080fd5b600090505b838110156122c15784818151811015156121e857fe5b9060200101517f010000000000000000000000000000000000000000000000000000000000000090047f0100000000000000000000000000000000000000000000000000000000000000027effffffffffffffffffffffffffffffffffffffffffffffffffffffffffffff1916868260208110151561226357fe5b1a7f0100000000000000000000000000000000000000000000000000000000000000027effffffffffffffffffffffffffffffffffffffffffffffffffffffffffffff19161415156122b457600091505b80806001019150506121d2565b81925050509392505050565b60008060008060006122dd613aa6565b60006122e7613aa6565b60206040518059106122f65750595b9080825280601f01601f1916602001820160405250925060208a600381518110151561231e57fe5b9060200101517f010000000000000000000000000000000000000000000000000000000000000090047f0100000000000000000000000000000000000000000000000000000000000000027f010000000000000000000000000000000000000000000000000000000000000090040360040191506123a18a836020866000611d99565b925060206040518059106123b25750595b9080825280601f01601f191660200182016040525090506022820191506124618a60208c600186038151811015156123e657fe5b9060200101517f010000000000000000000000000000000000000000000000000000000000000090047f0100000000000000000000000000000000000000000000000000000000000000027f010000000000000000000000000000000000000000000000000000000000000090040384016020846000611d99565b9050602083015194506020810151935061247e8b601b8787613076565b80975081985050508573ffffffffffffffffffffffffffffffffffffffff16896040518082805190602001908083835b6020831015156124d357805182526020820191506020810190506020830392506124ae565b6001836020036101000a03801982511681845116808217855250505050505090500191505060405180910390206001900473ffffffffffffffffffffffffffffffffffffffff16141561252957600197506125d6565b6125368b601c8787613076565b80975081985050508573ffffffffffffffffffffffffffffffffffffffff16896040518082805190602001908083835b60208310151561258b5780518252602082019150602081019050602083039250612566565b6001836020036101000a03801982511681845116808217855250505050505090500191505060405180910390206001900473ffffffffffffffffffffffffffffffffffffffff161497505b505050505050509392505050565b6000806125ef613aa6565b6125f7613aa6565b6125ff613aa6565b612607613aa6565b61260f613aa6565b612617613aa6565b61261f613aa6565b60028b60018c0181518110151561263257fe5b9060200101517f010000000000000000000000000000000000000000000000000000000000000090047f0100000000000000000000000000000000000000000000000000000000000000027f01000000000000000000000000000000000000000000000000000000000000009004016040518059106126ae5750595b9080825280601f01601f191660200182016040525096506126d48b8b89518a6000611d99565b50604080518059106126e35750595b9080825280601f01601f1916602001820160405250955061270a8b60046040896000611d99565b50606260405180591061271a5750595b9080825280601f01601f1916602001820160405250945060017f01000000000000000000000000000000000000000000000000000000000000000285600081518110151561276457fe5b9060200101907effffffffffffffffffffffffffffffffffffffffffffffffffffffffffffff1916908160001a9053506127a68b60418c036041886001611d99565b506040805190810160405280602081526020017ffd94fa71bc0ba10d39d464d0d8f465efeef0a2764e3887fcc9df41ded20f505c81525093506127ef8460006020886042611d99565b506128866002866000604051602001526040518082805190602001908083835b602083101515612834578051825260208201915060208101905060208303925061280f565b6001836020036101000a03801982511681845116808217855250505050505090500191505060206040518083038160008661646e5a03f1151561287657600080fd5b50506040518051905088886122cd565b975060001515881515141561289e5760009850612ae8565b606060405190810160405280604081526020017f7fb956469c5c9b89840d55b43537e66a98dd4811ea0a27224272c2e5622911e881526020017f537a2f8e86a46baec82864e98dd01e9ccc2f8bc5dfc9cbe5a91a290498dd96e48152509250604260405180591061290c5750595b9080825280601f01601f1916602001820160405250915060fe7f01000000000000000000000000000000000000000000000000000000000000000282600081518110151561295657fe5b9060200101907effffffffffffffffffffffffffffffffffffffffffffffffffffffffffffff1916908160001a9053506129968b60036041856001611d99565b5060028b60458151811015156129a857fe5b9060200101517f010000000000000000000000000000000000000000000000000000000000000090047f0100000000000000000000000000000000000000000000000000000000000000027f0100000000000000000000000000000000000000000000000000000000000000900401604051805910612a245750595b9080825280601f01601f19166020018201604052509050612a4b8b60448351846000611d99565b50612ae26002836000604051602001526040518082805190602001908083835b602083101515612a905780518252602082019150602081019050602083039250612a6b565b6001836020036101000a03801982511681845116808217855250505050505090500191505060206040518083038160008661646e5a03f11515612ad257600080fd5b50506040518051905082856122cd565b97508798505b505050505050505092915050565b6000813b9050919050565b6000612b0b6130ba565b9050919050565b600080612b1d613aa6565b60008060009054906101000a900473ffffffffffffffffffffffffffffffffffffffff1673ffffffffffffffffffffffffffffffffffffffff161480612b8c57506000612b8a6000809054906101000a900473ffffffffffffffffffffffffffffffffffffffff16612af6565b145b15612b9d57612b9b6000612b01565b505b6000809054906101000a900473ffffffffffffffffffffffffffffffffffffffff1673ffffffffffffffffffffffffffffffffffffffff166338cc48316000604051602001526040518163ffffffff167c0100000000000000000000000000000000000000000000000000000000028152600401602060405180830381600087803b1515612c2a57600080fd5b6102c65a03f11515612c3b57600080fd5b5050506040518051905073ffffffffffffffffffffffffffffffffffffffff16600160009054906101000a900473ffffffffffffffffffffffffffffffffffffffff1673ffffffffffffffffffffffffffffffffffffffff16141515612d84576000809054906101000a900473ffffffffffffffffffffffffffffffffffffffff1673ffffffffffffffffffffffffffffffffffffffff166338cc48316000604051602001526040518163ffffffff167c0100000000000000000000000000000000000000000000000000000000028152600401602060405180830381600087803b1515612d2857600080fd5b6102c65a03f11515612d3957600080fd5b50505060405180519050600160006101000a81548173ffffffffffffffffffffffffffffffffffffffff021916908373ffffffffffffffffffffffffffffffffffffffff1602179055505b600160009054906101000a900473ffffffffffffffffffffffffffffffffffffffff1673ffffffffffffffffffffffffffffffffffffffff16632ef3accc87866000604051602001526040518363ffffffff167c01000000000000000000000000000000000000000000000000000000000281526004018080602001838152602001828103825284818151815260200191508051906020019080838360005b83811015612e3e578082015181840152602081019050612e23565b50505050905090810190601f168015612e6b5780820380516001836020036101000a031916815260200191505b509350505050602060405180830381600087803b1515612e8a57600080fd5b6102c65a03f11515612e9b57600080fd5b505050604051805190509150833a02670de0b6b3a764000001821115612ec7576000600102925061306d565b612ed085613549565b9050600160009054906101000a900473ffffffffffffffffffffffffffffffffffffffff1673ffffffffffffffffffffffffffffffffffffffff1663c55c1cb68360008985896000604051602001526040518663ffffffff167c0100000000000000000000000000000000000000000000000000000000028152600401808581526020018060200180602001848152602001838103835286818151815260200191508051906020019080838360005b83811015612f9a578082015181840152602081019050612f7f565b50505050905090810190601f168015612fc75780820380516001836020036101000a031916815260200191505b50838103825285818151815260200191508051906020019080838360005b83811015613000578082015181840152602081019050612fe5565b50505050905090810190601f16801561302d5780820380516001836020036101000a031916815260200191505b5096505050505050506020604051808303818588803b151561304e57600080fd5b6125ee5a03f1151561305f57600080fd5b505050506040518051905092505b50509392505050565b60008060008060405188815287602082015286604082015285606082015260208160808360006001610bb8f192508051915050818193509350505094509492505050565b6000806130da731d3b2638a7cc9f2cb3d298a3da7a90b67e5506ed612af6565b111561317b57731d3b2638a7cc9f2cb3d298a3da7a90b67e5506ed6000806101000a81548173ffffffffffffffffffffffffffffffffffffffff021916908373ffffffffffffffffffffffffffffffffffffffff1602179055506131726040805190810160405280600b81526020017f6574685f6d61696e6e6574000000000000000000000000000000000000000000815250613a34565b60019050613546565b600061319a73c03a2615d5efaf5f49f60b7bb6583eaec212fdf1612af6565b111561323b5773c03a2615d5efaf5f49f60b7bb6583eaec212fdf16000806101000a81548173ffffffffffffffffffffffffffffffffffffffff021916908373ffffffffffffffffffffffffffffffffffffffff1602179055506132326040805190810160405280600c81526020017f6574685f726f707374656e330000000000000000000000000000000000000000815250613a34565b60019050613546565b600061325a73b7a07bcf2ba2f2703b24c0691b5278999c59ac7e612af6565b11156132fb5773b7a07bcf2ba2f2703b24c0691b5278999c59ac7e6000806101000a81548173ffffffffffffffffffffffffffffffffffffffff021916908373ffffffffffffffffffffffffffffffffffffffff1602179055506132f26040805190810160405280600981526020017f6574685f6b6f76616e0000000000000000000000000000000000000000000000815250613a34565b60019050613546565b600061331a73146500cfd35b22e4a392fe0adc06de1a1368ed48612af6565b11156133bb5773146500cfd35b22e4a392fe0adc06de1a1368ed486000806101000a81548173ffffffffffffffffffffffffffffffffffffffff021916908373ffffffffffffffffffffffffffffffffffffffff1602179055506133b26040805190810160405280600b81526020017f6574685f72696e6b656279000000000000000000000000000000000000000000815250613a34565b60019050613546565b60006133da736f485c8bf6fc43ea212e93bbf8ce046c7f1cb475612af6565b111561343d57736f485c8bf6fc43ea212e93bbf8ce046c7f1cb4756000806101000a81548173ffffffffffffffffffffffffffffffffffffffff021916908373ffffffffffffffffffffffffffffffffffffffff16021790555060019050613546565b600061345c7320e12a1f859b3feae5fb2a0a32c18f5a65555bbf612af6565b11156134bf577320e12a1f859b3feae5fb2a0a32c18f5a65555bbf6000806101000a81548173ffffffffffffffffffffffffffffffffffffffff021916908373ffffffffffffffffffffffffffffffffffffffff16021790555060019050613546565b60006134de7351efaf4c8b3c9afbd5ab9f4bbc82784ab6ef8faa612af6565b1115613541577351efaf4c8b3c9afbd5ab9f4bbc82784ab6ef8faa6000806101000a81548173ffffffffffffffffffffffffffffffffffffffff021916908373ffffffffffffffffffffffffffffffffffffffff16021790555060019050613546565b600090505b90565b613551613aa6565b60008061355c613afc565b6000806000613569613aa6565b60008060008b51995060009850896040518059106135845750595b9080825280602002602001820160405280156135ba57816020015b6135a7613b10565b81526020019060019003908161359f5790505b509750600096505b89871015613653578b878151811015156135d857fe5b9060200190602002015188888151811015156135f057fe5b906020019060200201819052506003601760018a8a81518110151561361157fe5b90602001906020020151510381151561362657fe5b04898981518110151561363557fe5b906020019060200201515101018901985086806001019750506135c2565b6000955060808a019450600160ff1689019850886040518059106136745750595b9080825280601f01601f191660200182016040525093505b85600160ff16111561373657847f010000000000000000000000000000000000000000000000000000000000000002866001811015156136c857fe5b1a7f01000000000000000000000000000000000000000000000000000000000000000284878151811015156136f957fe5b9060200101907effffffffffffffffffffffffffffffffffffffffffffffffffffffffffffff1916908160001a905350858060010196505061368c565b600096505b89871015613a2257605f7f010000000000000000000000000000000000000000000000000000000000000002848781518110151561377557fe5b9060200101907effffffffffffffffffffffffffffffffffffffffffffffffffffffffffffff1916908160001a9053508580600101965050600092505b87878151811015156137c057fe5b90602001906020020151518310156139ab5760006017848115156137e057fe5b0614156138e85760188389898151811015156137f857fe5b906020019060200201515103101561382a5782888881518110151561381957fe5b90602001906020020151510361382d565b60175b91506040820191508590505b808603600160ff1611156138e757817f01000000000000000000000000000000000000000000000000000000000000000281870360018110151561387957fe5b1a7f01000000000000000000000000000000000000000000000000000000000000000284878151811015156138aa57fe5b9060200101907effffffffffffffffffffffffffffffffffffffffffffffffffffffffffffff1916908160001a9053508580600101965050613839565b5b87878151811015156138f657fe5b906020019060200201518381518110151561390d57fe5b9060200101517f010000000000000000000000000000000000000000000000000000000000000090047f010000000000000000000000000000000000000000000000000000000000000002848781518110151561396657fe5b9060200101907effffffffffffffffffffffffffffffffffffffffffffffffffffffffffffff1916908160001a905350858060010196505082806001019350506137b2565b60ff7f01000000000000000000000000000000000000000000000000000000000000000284878151811015156139dd57fe5b9060200101907effffffffffffffffffffffffffffffffffffffffffffffffffffffffffffff1916908160001a9053508580600101965050868060010197505061373b565b839a5050505050505050505050919050565b8060029080519060200190613a4a929190613b24565b5050565b815481835581811511613a7557818360005260206000209182019101613a749190613ba4565b5b505050565b815481835581811511613aa157818360005260206000209182019101613aa09190613ba4565b5b505050565b602060405190810160405280600081525090565b6080604051908101604052806004905b613ad2613b10565b815260200190600190039081613aca5790505090565b602060405190810160405280600081525090565b602060405190810160405280600081525090565b602060405190810160405280600081525090565b828054600181600116156101000203166002900490600052602060002090601f016020900481019282601f10613b6557805160ff1916838001178555613b93565b82800160010185558215613b93579182015b82811115613b92578251825591602001919060010190613b77565b5b509050613ba09190613ba4565b5090565b613bc691905b80821115613bc2576000816000905550600101613baa565b5090565b90565b60008060009054906101000a900473ffffffffffffffffffffffffffffffffffffffff1673ffffffffffffffffffffffffffffffffffffffff161480613c3857506000613c366000809054906101000a900473ffffffffffffffffffffffffffffffffffffffff16612af6565b145b15613c4957613c476000612b01565b505b6000809054906101000a900473ffffffffffffffffffffffffffffffffffffffff1673ffffffffffffffffffffffffffffffffffffffff166338cc48316000604051602001526040518163ffffffff167c0100000000000000000000000000000000000000000000000000000000028152600401602060405180830381600087803b1515613cd657600080fd5b6102c65a03f11515613ce757600080fd5b5050506040518051905073ffffffffffffffffffffffffffffffffffffffff16600160009054906101000a900473ffffffffffffffffffffffffffffffffffffffff1673ffffffffffffffffffffffffffffffffffffffff16141515613e30576000809054906101000a900473ffffffffffffffffffffffffffffffffffffffff1673ffffffffffffffffffffffffffffffffffffffff166338cc48316000604051602001526040518163ffffffff167c0100000000000000000000000000000000000000000000000000000000028152600401602060405180830381600087803b1515613dd457600080fd5b6102c65a03f11515613de557600080fd5b50505060405180519050600160006101000a81548173ffffffffffffffffffffffffffffffffffffffff021916908373ffffffffffffffffffffffffffffffffffffffff1602179055505b600160009054906101000a900473ffffffffffffffffffffffffffffffffffffffff1673ffffffffffffffffffffffffffffffffffffffff1663688dcfd7826040518263ffffffff167c010000000000000000000000000000000000000000000000000000000002815260040180827effffffffffffffffffffffffffffffffffffffffffffffffffffffffffffff19167effffffffffffffffffffffffffffffffffffffffffffffffffffffffffffff19168152602001915050600060405180830381600087803b1515613f0457600080fd5b6102c65a03f11515613f1557600080fd5b505050505600a165627a7a72305820b365d2ef83a3876d43c532641958c79d66ba4f7410b89c9db0fa7af60484ea980029",
  "source": "pragma solidity >=0.4.0 <0.7.0;\nimport \"../installed_contracts/oraclize-api/contracts/usingOraclize.sol\";\n\ncontract Casino is usingOraclize {\n    address private owner;\n    uint private minimumBet;\n    uint private numberOfBets;\n    uint private maxNumberOfBets;\n    uint private totalBet;\n    uint constant LIMIT_AMOUNT_BETS = 10;\n    uint private numberWinner;\n    mapping(address => uint) private playerBetsNumber;\n    mapping(uint => address[]) private numberBetPlayers;\n\n    function Casino(uint _minimumBet, uint _maxNumberOfBets) public {\n        owner = msg.sender;\n\n        numberOfBets = 0;\n        totalBet = 0;\n        if (_minimumBet > 0) {\n            minimumBet = _minimumBet;\n        }\n\n        if (_maxNumberOfBets > 0 && _maxNumberOfBets <= LIMIT_AMOUNT_BETS) {\n            maxNumberOfBets = _maxNumberOfBets;\n        }\n\n        //OAR = OraclizeAddrResolverI(0x6f485C8BF6fc43eA212E93BBF8ce046C7f1cb475);\n        OAR = OraclizeAddrResolverI(0x3dCB1BeeD059bc733192E7b9a62AF4C62836d3da);\n        oraclize_setProof(proofType_Ledger);\n        //oraclize_setProof(proofType_TLSNotary | proofStorage_IPFS);\n    }\n\n    function bet(uint numberToBet) payable public {\n        assert(numberOfBets < maxNumberOfBets);\n        assert(checkPlayerExists(msg.sender) == false);\n        assert(numberToBet >= 1 && numberToBet <= 10);\n        assert(msg.value >= minimumBet);\n\n        playerBetsNumber[msg.sender] = numberToBet;\n\n        numberBetPlayers[numberToBet].push(msg.sender);\n\n        numberOfBets += 1;\n        totalBet += msg.value;\n\n        if (numberOfBets >= maxNumberOfBets) {\n            generateNumberWinner();\n        }\n    }\n\n    function checkPlayerExists(address player) public view returns (bool) {\n       return playerBetsNumber[player] > 0;\n    }\n\n    modifier onEndGame() {\n        require(numberOfBets <=  maxNumberOfBets);\n        _;\n    }\n\n    event GenerateNumberWinner(bytes32 queryId);\n    function generateNumberWinner() payable onEndGame public {\n        uint numberRandomBytes = 7;\n        uint delay = 0;\n        uint callbackGas = 200000;\n\n        bytes32 queryId = oraclize_newRandomDSQuery(delay, numberRandomBytes, callbackGas);\n        GenerateNumberWinner(queryId);\n        queryId; // gets rid of the compiler warning about unused variable.\n    }\n\n    event CallbackEvent(bytes32 _queryId, string _result, bytes _proof);\n    event Winner(uint numberWinner);\n    function __callback(bytes32 _queryId, string _result, bytes _proof) oraclize_randomDS_proofVerify(_queryId, _result, _proof) onEndGame public {\n        // Checks that the sender of this callback was in fact oraclize\n        CallbackEvent(_queryId, _result,_proof);\n        assert(msg.sender == oraclize_cbAddress());\n\n        numberWinner = (uint(keccak256(_result)) % 10 + 1);\n        Winner(numberWinner);\n\n        distributePrizes();\n    }\n    // function __callback(bytes32 _queryId, string _result, bytes _proof) onEndGame public {\n    //     // Checks that the sender of this callback was in fact oraclize\n    //     assert(msg.sender == oraclize_cbAddress());\n\n    //     numberWinner = (uint(keccak256(_result)) % 10 + 1);\n    //     distributePrizes();\n    // }\n\n    function distributePrizes() onEndGame public {\n       uint winnerEtherAmount = totalBet / numberBetPlayers[numberWinner].length; // How much each winner gets\n\n       // Loop through all the winners to send the corresponding prize for each one\n       for (uint i = 0; i < numberBetPlayers[numberWinner].length; i++) {\n           numberBetPlayers[numberWinner][i].transfer(winnerEtherAmount);\n       }\n\n       // Delete all the players for each number\n       for (uint j = 1; j <= 10; j++) {\n           numberBetPlayers[j].length = 0;\n       }\n\n       totalBet = 0;\n       numberOfBets = 0;\n    }\n}",
  "sourcePath": "/Users/denisputnam/git/mi4-exercise8/contracts/Casino.sol",
  "compiler": {
    "name": "solc",
    "version": "0.4.18+commit.9cf6e910.Emscripten.clang"
  },
  "schemaVersion": "3.0.23",
  "updatedAt": "2020-03-20T23:41:00.843Z",
  "networkType": "ethereum",
  "devdoc": {
    "methods": {}
  },
  "userdoc": {
    "methods": {}
  }
}