{
  "contractName": "Casino",
  "abi": [
    {
      "inputs": [
        {
          "name": "_minimumBet",
          "type": "uint256"
        },
        {
          "name": "_maxNumberOfBets",
          "type": "uint256"
        }
      ],
      "payable": false,
      "stateMutability": "nonpayable",
      "type": "constructor"
    },
    {
      "anonymous": false,
      "inputs": [
        {
          "indexed": false,
          "name": "queryId",
          "type": "bytes32"
        }
      ],
      "name": "GenerateNumberWinner",
      "type": "event"
    },
    {
      "anonymous": false,
      "inputs": [
        {
          "indexed": false,
          "name": "_queryId",
          "type": "bytes32"
        },
        {
          "indexed": false,
          "name": "_result",
          "type": "string"
        },
        {
          "indexed": false,
          "name": "_proof",
          "type": "bytes"
        }
      ],
      "name": "CallbackEvent",
      "type": "event"
    },
    {
      "anonymous": false,
      "inputs": [
        {
          "indexed": false,
          "name": "numberWinner",
          "type": "uint256"
        }
      ],
      "name": "Winner",
      "type": "event"
    },
    {
      "constant": false,
      "inputs": [
        {
          "name": "numberToBet",
          "type": "uint256"
        }
      ],
      "name": "bet",
      "outputs": [],
      "payable": true,
      "stateMutability": "payable",
      "type": "function"
    },
    {
      "constant": true,
      "inputs": [
        {
          "name": "player",
          "type": "address"
        }
      ],
      "name": "checkPlayerExists",
      "outputs": [
        {
          "name": "",
          "type": "bool"
        }
      ],
      "payable": false,
      "stateMutability": "view",
      "type": "function"
    },
    {
      "constant": false,
      "inputs": [],
      "name": "generateNumberWinner",
      "outputs": [],
      "payable": true,
      "stateMutability": "payable",
      "type": "function"
    },
    {
      "constant": false,
      "inputs": [
        {
          "name": "myid",
          "type": "bytes32"
        },
        {
          "name": "result",
          "type": "string"
        }
      ],
      "name": "__callback",
      "outputs": [],
      "payable": false,
      "stateMutability": "nonpayable",
      "type": "function"
    },
    {
      "constant": false,
      "inputs": [
        {
          "name": "_queryId",
          "type": "bytes32"
        },
        {
          "name": "_result",
          "type": "string"
        },
        {
          "name": "_proof",
          "type": "bytes"
        }
      ],
      "name": "__callback",
      "outputs": [],
      "payable": false,
      "stateMutability": "nonpayable",
      "type": "function"
    },
    {
      "constant": false,
      "inputs": [],
      "name": "distributePrizes",
      "outputs": [],
      "payable": false,
      "stateMutability": "nonpayable",
      "type": "function"
    }
  ],
  "bytecode": "0x606060405234156200001057600080fd5b60405160408062004b248339810160405280805190602001909190805190602001909190505033600560006101000a81548173ffffffffffffffffffffffffffffffffffffffff021916908373ffffffffffffffffffffffffffffffffffffffff1602179055506000600781905550600060098190555060008211156200009957816006819055505b600081118015620000ab5750600a8111155b15620000b957806008819055505b735f930eef71cde47400ff5b3cebf714e031d8d3026000806101000a81548173ffffffffffffffffffffffffffffffffffffffff021916908373ffffffffffffffffffffffffffffffffffffffff1602179055506200014f60307f010000000000000000000000000000000000000000000000000000000000000002620001576401000000000262003c2c176401000000009004565b505062000b6a565b60008060009054906101000a900473ffffffffffffffffffffffffffffffffffffffff1673ffffffffffffffffffffffffffffffffffffffff161480620001dd57506000620001db6000809054906101000a900473ffffffffffffffffffffffffffffffffffffffff16620004de6401000000000262002b59176401000000009004565b145b156200020557620002036000620004e96401000000000262002b64176401000000009004565b505b6000809054906101000a900473ffffffffffffffffffffffffffffffffffffffff1673ffffffffffffffffffffffffffffffffffffffff166338cc48316000604051602001526040518163ffffffff167c0100000000000000000000000000000000000000000000000000000000028152600401602060405180830381600087803b15156200029357600080fd5b6102c65a03f11515620002a557600080fd5b5050506040518051905073ffffffffffffffffffffffffffffffffffffffff16600160009054906101000a900473ffffffffffffffffffffffffffffffffffffffff1673ffffffffffffffffffffffffffffffffffffffff16141515620003f1576000809054906101000a900473ffffffffffffffffffffffffffffffffffffffff1673ffffffffffffffffffffffffffffffffffffffff166338cc48316000604051602001526040518163ffffffff167c0100000000000000000000000000000000000000000000000000000000028152600401602060405180830381600087803b15156200039457600080fd5b6102c65a03f11515620003a657600080fd5b50505060405180519050600160006101000a81548173ffffffffffffffffffffffffffffffffffffffff021916908373ffffffffffffffffffffffffffffffffffffffff1602179055505b600160009054906101000a900473ffffffffffffffffffffffffffffffffffffffff1673ffffffffffffffffffffffffffffffffffffffff1663688dcfd7826040518263ffffffff167c010000000000000000000000000000000000000000000000000000000002815260040180827effffffffffffffffffffffffffffffffffffffffffffffffffffffffffffff19167effffffffffffffffffffffffffffffffffffffffffffffffffffffffffffff19168152602001915050600060405180830381600087803b1515620004c657600080fd5b6102c65a03f11515620004d857600080fd5b50505050565b6000813b9050919050565b60006200050962000510640100000000026200311d176401000000009004565b9050919050565b60008062000546731d3b2638a7cc9f2cb3d298a3da7a90b67e5506ed620004de6401000000000262002b59176401000000009004565b1115620005ff57731d3b2638a7cc9f2cb3d298a3da7a90b67e5506ed6000806101000a81548173ffffffffffffffffffffffffffffffffffffffff021916908373ffffffffffffffffffffffffffffffffffffffff160217905550620005f56040805190810160405280600b81526020017f6574685f6d61696e6e657400000000000000000000000000000000000000000081525062000a9f6401000000000262003a97176401000000009004565b6001905062000a9c565b60006200063473c03a2615d5efaf5f49f60b7bb6583eaec212fdf1620004de6401000000000262002b59176401000000009004565b1115620006ed5773c03a2615d5efaf5f49f60b7bb6583eaec212fdf16000806101000a81548173ffffffffffffffffffffffffffffffffffffffff021916908373ffffffffffffffffffffffffffffffffffffffff160217905550620006e36040805190810160405280600c81526020017f6574685f726f707374656e33000000000000000000000000000000000000000081525062000a9f6401000000000262003a97176401000000009004565b6001905062000a9c565b60006200072273b7a07bcf2ba2f2703b24c0691b5278999c59ac7e620004de6401000000000262002b59176401000000009004565b1115620007db5773b7a07bcf2ba2f2703b24c0691b5278999c59ac7e6000806101000a81548173ffffffffffffffffffffffffffffffffffffffff021916908373ffffffffffffffffffffffffffffffffffffffff160217905550620007d16040805190810160405280600981526020017f6574685f6b6f76616e000000000000000000000000000000000000000000000081525062000a9f6401000000000262003a97176401000000009004565b6001905062000a9c565b60006200081073146500cfd35b22e4a392fe0adc06de1a1368ed48620004de6401000000000262002b59176401000000009004565b1115620008c95773146500cfd35b22e4a392fe0adc06de1a1368ed486000806101000a81548173ffffffffffffffffffffffffffffffffffffffff021916908373ffffffffffffffffffffffffffffffffffffffff160217905550620008bf6040805190810160405280600b81526020017f6574685f72696e6b65627900000000000000000000000000000000000000000081525062000a9f6401000000000262003a97176401000000009004565b6001905062000a9c565b6000620008fe736f485c8bf6fc43ea212e93bbf8ce046c7f1cb475620004de6401000000000262002b59176401000000009004565b11156200096357736f485c8bf6fc43ea212e93bbf8ce046c7f1cb4756000806101000a81548173ffffffffffffffffffffffffffffffffffffffff021916908373ffffffffffffffffffffffffffffffffffffffff1602179055506001905062000a9c565b6000620009987320e12a1f859b3feae5fb2a0a32c18f5a65555bbf620004de6401000000000262002b59176401000000009004565b1115620009fd577320e12a1f859b3feae5fb2a0a32c18f5a65555bbf6000806101000a81548173ffffffffffffffffffffffffffffffffffffffff021916908373ffffffffffffffffffffffffffffffffffffffff1602179055506001905062000a9c565b600062000a327351efaf4c8b3c9afbd5ab9f4bbc82784ab6ef8faa620004de6401000000000262002b59176401000000009004565b111562000a97577351efaf4c8b3c9afbd5ab9f4bbc82784ab6ef8faa6000806101000a81548173ffffffffffffffffffffffffffffffffffffffff021916908373ffffffffffffffffffffffffffffffffffffffff1602179055506001905062000a9c565b600090505b90565b806002908051906020019062000ab792919062000abb565b5050565b828054600181600116156101000203166002900490600052602060002090601f016020900481019282601f1062000afe57805160ff191683800117855562000b2f565b8280016001018555821562000b2f579182015b8281111562000b2e57825182559160200191906001019062000b11565b5b50905062000b3e919062000b42565b5090565b62000b6791905b8082111562000b6357600081600090555060010162000b49565b5090565b90565b613faa8062000b7a6000396000f300606060405260043610610078576000357c0100000000000000000000000000000000000000000000000000000000900463ffffffff1680630a50e3611461007d57806327dc297e1461008757806338bbfa50146100f15780634081d9161461019e5780637365870b146101ef5780637ce52eb614610207575b600080fd5b61008561021c565b005b341561009257600080fd5b6100ef60048080356000191690602001909190803590602001908201803590602001908080601f01602080910402602001604051908101604052809392919081815260200183838082843782019150505050505091905050610295565b005b34156100fc57600080fd5b61019c60048080356000191690602001909190803590602001908201803590602001908080601f0160208091040260200160405190810160405280939291908181526020018383808284378201915050505050509190803590602001908201803590602001908080601f016020809104026020016040519081016040528093929190818152602001838380828437820191505050505050919050506102c7565b005b34156101a957600080fd5b6101d5600480803573ffffffffffffffffffffffffffffffffffffffff16906020019091905050610715565b604051808215151515815260200191505060405180910390f35b610205600480803590602001909190505061076b565b005b341561021257600080fd5b61021a610904565b005b6000806000806008546007541115151561023557600080fd5b600793506000925062030d40915061024e838584610a55565b90507f92ec40a55565a89eec415854c3cf31502ac58d7e788da918105226cdb9c53bba8160405180826000191660001916815260200191505060405180910390a150505050565b6102c3828260006040518059106102a95750595b9080825280601f01601f19166020018201604052506102c7565b5050565b82828260007f4c000000000000000000000000000000000000000000000000000000000000008260008151811015156102fc57fe5b9060200101517f010000000000000000000000000000000000000000000000000000000000000090047f0100000000000000000000000000000000000000000000000000000000000000027effffffffffffffffffffffffffffffffffffffffffffffffffffffffffffff191614801561041057507f50000000000000000000000000000000000000000000000000000000000000008260018151811015156103a157fe5b9060200101517f010000000000000000000000000000000000000000000000000000000000000090047f0100000000000000000000000000000000000000000000000000000000000000027effffffffffffffffffffffffffffffffffffffffffffffffffffffffffffff1916145b80156104b9575060017f01000000000000000000000000000000000000000000000000000000000000000282600281518110151561044a57fe5b9060200101517f010000000000000000000000000000000000000000000000000000000000000090047f0100000000000000000000000000000000000000000000000000000000000000027effffffffffffffffffffffffffffffffffffffffffffffffffffffffffffff1916145b15156104c457600080fd5b6104d78285856104d2610fc5565b61106d565b90508015156104e557600080fd5b600854600754111515156104f857600080fd5b7fb3e89d41ce99ed2471aa7a562b8454fdb86bdb1ea60d6b7e819bcbcadd2bc1db8787876040518084600019166000191681526020018060200180602001838103835285818151815260200191508051906020019080838360005b8381101561056e578082015181840152602081019050610553565b50505050905090810190601f16801561059b5780820380516001836020036101000a031916815260200191505b50838103825284818151815260200191508051906020019080838360005b838110156105d45780820151818401526020810190506105b9565b50505050905090810190601f1680156106015780820380516001836020036101000a031916815260200191505b509550505050505060405180910390a16106196117d0565b73ffffffffffffffffffffffffffffffffffffffff163373ffffffffffffffffffffffffffffffffffffffff1614151561064f57fe5b6001600a876040518082805190602001908083835b6020831015156106895780518252602082019150602081019050602083039250610664565b6001836020036101000a0380198251168184511680821785525050505050509050019150506040518091039020600190048115156106c357fe5b0601600a819055507fbb3d2435d73ea44ac623b225c6c58edec133edbcc0326a6f1e9d1d5b438252ff600a546040518082815260200191505060405180910390a161070c610904565b50505050505050565b6000600d60008373ffffffffffffffffffffffffffffffffffffffff1673ffffffffffffffffffffffffffffffffffffffff16815260200190815260200160002060009054906101000a900460ff169050919050565b60085460075410151561077a57fe5b6000151561078733610715565b151514151561079257fe5b600181101580156107a45750600a8111155b15156107ac57fe5b60065434101515156107ba57fe5b80600b60003373ffffffffffffffffffffffffffffffffffffffff1673ffffffffffffffffffffffffffffffffffffffff168152602001908152602001600020819055506001600d60003373ffffffffffffffffffffffffffffffffffffffff1673ffffffffffffffffffffffffffffffffffffffff16815260200190815260200160002060006101000a81548160ff021916908315150217905550600c6000828152602001908152602001600020805480600101828161087b9190613ab1565b9160005260206000209001600033909190916101000a81548173ffffffffffffffffffffffffffffffffffffffff021916908373ffffffffffffffffffffffffffffffffffffffff160217905550506001600760008282540192505081905550346009600082825401925050819055506008546007541015156109015761090061021c565b5b50565b60008060006008546007541115151561091c57600080fd5b600c6000600a5481526020019081526020016000208054905060095481151561094157fe5b049250600091505b600c6000600a54815260200190815260200160002080549050821015610a0357600c6000600a5481526020019081526020016000208281548110151561098b57fe5b906000526020600020900160009054906101000a900473ffffffffffffffffffffffffffffffffffffffff1673ffffffffffffffffffffffffffffffffffffffff166108fc849081150290604051600060405180830381858888f1935050505015156109f657600080fd5b8180600101925050610949565b600190505b600a81111515610a40576000600c600083815260200190815260200160002081610a329190613add565b508080600101915050610a08565b60006009819055506000600781905550505050565b6000610a5f613b09565b610a67613b09565b610a6f613b09565b6000610a79613b09565b610a81613b09565b610a89613b1d565b6000610a93613b09565b60008c118015610aa4575060208c11155b1515610aaf57600080fd5b600a8d029c506001604051805910610ac45750595b9080825280601f01601f191660200182016040525098508b7f010000000000000000000000000000000000000000000000000000000000000002896000815181101515610b0d57fe5b9060200101907effffffffffffffffffffffffffffffffffffffffffffffffffffffffffffff1916908160001a9053506020604051805910610b4c5750595b9080825280601f01601f191660200182016040525097506020604051805910610b725750595b9080825280601f01601f19166020018201604052509650610b91611ae6565b9550602088524241186001430340186020890152602087528560208801526020604051805910610bbe5750595b9080825280601f01601f191660200182016040525094508c60208601526008604051805910610bea5750595b9080825280601f01601f19166020018201604052509350610c118560186008876000611dfc565b506080604051908101604052808981526020018a8152602001888152602001868152509250610c766040805190810160405280600681526020017f72616e646f6d0000000000000000000000000000000000000000000000000000815250848d611e62565b91506008604051805910610c875750595b9080825280601f01601f1916602001820160405250905060208401517f0100000000000000000000000000000000000000000000000000000000000000810460278301537e01000000000000000000000000000000000000000000000000000000000000810460268301537d010000000000000000000000000000000000000000000000000000000000810460258301537c0100000000000000000000000000000000000000000000000000000000810460248301537b01000000000000000000000000000000000000000000000000000000810460238301537a010000000000000000000000000000000000000000000000000000810460228301537901000000000000000000000000000000000000000000000000008104602183015378010000000000000000000000000000000000000000000000008104602083015350610fb28282856001600481101515610ddc57fe5b60200201516002876000600481101515610df257fe5b60200201516000604051602001526040518082805190602001908083835b602083101515610e355780518252602082019150602081019050602083039250610e10565b6001836020036101000a03801982511681845116808217855250505050505090500191505060206040518083038160008661646e5a03f11515610e7757600080fd5b505060405180519050876002600481101515610e8f57fe5b60200201516040518085805190602001908083835b602083101515610ec95780518252602082019150602081019050602083039250610ea4565b6001836020036101000a03801982511681845116808217855250505050505090500184805190602001908083835b602083101515610f1c5780518252602082019150602081019050602083039250610ef7565b6001836020036101000a038019825116818451168082178552505050505050905001836000191660001916815260200182805190602001908083835b602083101515610f7d5780518252602082019150602081019050602083039250610f58565b6001836020036101000a03801982511681845116808217855250505050505090500194505050505060405180910390206121f0565b8199505050505050505050509392505050565b610fcd613b4b565b60028054600181600116156101000203166002900480601f0160208091040260200160405190810160405280929190818152602001828054600181600116156101000203166002900480156110635780601f1061103857610100808354040283529160200191611063565b820191906000526020600020905b81548152906001019060200180831161104657829003601f168201915b5050505050905090565b600080611078613b09565b611080613b09565b611088613b09565b611090613b09565b60008061109b613b09565b602060028e60458151811015156110ae57fe5b9060200101517f010000000000000000000000000000000000000000000000000000000000000090047f0100000000000000000000000000000000000000000000000000000000000000027f010000000000000000000000000000000000000000000000000000000000000090040160440101975060206040518059106111325750595b9080825280601f01601f191660200182016040525096506111588d8960208a6000611dfc565b5060028a8d6000604051602001526040518083805190602001908083835b60208310151561119b5780518252602082019150602081019050602083039250611176565b6001836020036101000a03801982511681845116808217855250505050505090500182600019166000191681526020019250505060206040518083038160008661646e5a03f115156111ec57600080fd5b505060405180519050604051808260001916600019168152602001915050604051809103902060001916876040518082805190602001908083835b60208310151561124c5780518252602082019150602081019050602083039250611227565b6001836020036101000a03801982511681845116808217855250505050505090500191505060405180910390206000191614151561128d57600098506117c0565b60028d600160498b01018151811015156112a357fe5b9060200101517f010000000000000000000000000000000000000000000000000000000000000090047f0100000000000000000000000000000000000000000000000000000000000000027f010000000000000000000000000000000000000000000000000000000000000090040160405180591061131f5750595b9080825280601f01601f191660200182016040525095506113488d60498a018851896000611dfc565b506114606002876000604051602001526040518082805190602001908083835b60208310151561138d5780518252602082019150602081019050602083039250611368565b6001836020036101000a03801982511681845116808217855250505050505090500191505060206040518083038160008661646e5a03f115156113cf57600080fd5b5050604051805190508c8f600860208d01018151811015156113ed57fe5b9060200101517f010000000000000000000000000000000000000000000000000000000000000090047f0100000000000000000000000000000000000000000000000000000000000000027f01000000000000000000000000000000000000000000000000000000000000009004612218565b151561146f57600098506117c0565b602960405180591061147e5750595b9080825280601f01601f191660200182016040525094506114a78d60208a016029886000611dfc565b50604080518059106114b65750595b9080825280601f01601f1916602001820160405250935060418651602960208b0101010192506114ee8d604085036040876000611dfc565b506002846000604051602001526040518082805190602001908083835b602083101515611530578051825260208201915060208101905060208303925061150b565b6001836020036101000a03801982511681845116808217855250505050505090500191505060206040518083038160008661646e5a03f1151561157257600080fd5b505060405180519050915084826040518083805190602001908083835b6020831015156115b4578051825260208201915060208101905060208303925061158f565b6001836020036101000a038019825116818451168082178552505050505050905001826000191660001916815260200192505050604051809103902060001916600360008e600019166000191681526020019081526020016000205460001916141561163e57600360008d6000191660001916815260200190815260200160002060009055611647565b600098506117c0565b60496040518059106116565750595b9080825280601f01601f1916602001820160405250905061167c8d896049846000611dfc565b506117136002826000604051602001526040518082805190602001908083835b6020831015156116c1578051825260208201915060208101905060208303925061169c565b6001836020036101000a03801982511681845116808217855250505050505090500191505060206040518083038160008661646e5a03f1151561170357600080fd5b5050604051805190508786612330565b151561172257600098506117c0565b6000151560046000846000191660001916815260200190815260200160002060009054906101000a900460ff1615151415611794576117618d84612647565b60046000846000191660001916815260200190815260200160002060006101000a81548160ff0219169083151502179055505b60046000836000191660001916815260200190815260200160002060009054906101000a900460ff1698505b5050505050505050949350505050565b6000806000809054906101000a900473ffffffffffffffffffffffffffffffffffffffff1673ffffffffffffffffffffffffffffffffffffffff1614806118405750600061183e6000809054906101000a900473ffffffffffffffffffffffffffffffffffffffff16612b59565b145b156118515761184f6000612b64565b505b6000809054906101000a900473ffffffffffffffffffffffffffffffffffffffff1673ffffffffffffffffffffffffffffffffffffffff166338cc48316000604051602001526040518163ffffffff167c0100000000000000000000000000000000000000000000000000000000028152600401602060405180830381600087803b15156118de57600080fd5b6102c65a03f115156118ef57600080fd5b5050506040518051905073ffffffffffffffffffffffffffffffffffffffff16600160009054906101000a900473ffffffffffffffffffffffffffffffffffffffff1673ffffffffffffffffffffffffffffffffffffffff16141515611a38576000809054906101000a900473ffffffffffffffffffffffffffffffffffffffff1673ffffffffffffffffffffffffffffffffffffffff166338cc48316000604051602001526040518163ffffffff167c0100000000000000000000000000000000000000000000000000000000028152600401602060405180830381600087803b15156119dc57600080fd5b6102c65a03f115156119ed57600080fd5b50505060405180519050600160006101000a81548173ffffffffffffffffffffffffffffffffffffffff021916908373ffffffffffffffffffffffffffffffffffffffff1602179055505b600160009054906101000a900473ffffffffffffffffffffffffffffffffffffffff1673ffffffffffffffffffffffffffffffffffffffff1663c281d19e6000604051602001526040518163ffffffff167c0100000000000000000000000000000000000000000000000000000000028152600401602060405180830381600087803b1515611ac657600080fd5b6102c65a03f11515611ad757600080fd5b50505060405180519050905090565b6000806000809054906101000a900473ffffffffffffffffffffffffffffffffffffffff1673ffffffffffffffffffffffffffffffffffffffff161480611b5657506000611b546000809054906101000a900473ffffffffffffffffffffffffffffffffffffffff16612b59565b145b15611b6757611b656000612b64565b505b6000809054906101000a900473ffffffffffffffffffffffffffffffffffffffff1673ffffffffffffffffffffffffffffffffffffffff166338cc48316000604051602001526040518163ffffffff167c0100000000000000000000000000000000000000000000000000000000028152600401602060405180830381600087803b1515611bf457600080fd5b6102c65a03f11515611c0557600080fd5b5050506040518051905073ffffffffffffffffffffffffffffffffffffffff16600160009054906101000a900473ffffffffffffffffffffffffffffffffffffffff1673ffffffffffffffffffffffffffffffffffffffff16141515611d4e576000809054906101000a900473ffffffffffffffffffffffffffffffffffffffff1673ffffffffffffffffffffffffffffffffffffffff166338cc48316000604051602001526040518163ffffffff167c0100000000000000000000000000000000000000000000000000000000028152600401602060405180830381600087803b1515611cf257600080fd5b6102c65a03f11515611d0357600080fd5b50505060405180519050600160006101000a81548173ffffffffffffffffffffffffffffffffffffffff021916908373ffffffffffffffffffffffffffffffffffffffff1602179055505b600160009054906101000a900473ffffffffffffffffffffffffffffffffffffffff1673ffffffffffffffffffffffffffffffffffffffff1663abaa5f3e6000604051602001526040518163ffffffff167c0100000000000000000000000000000000000000000000000000000000028152600401602060405180830381600087803b1515611ddc57600080fd5b6102c65a03f11515611ded57600080fd5b50505060405180519050905090565b611e04613b09565b6000806000848701925082865110151515611e1e57600080fd5b8760200191508460200190505b868860200101821015611e535781890151808288015250602082019150602081019050611e2b565b85935050505095945050505050565b6000611e6c613b5f565b60008060009054906101000a900473ffffffffffffffffffffffffffffffffffffffff1673ffffffffffffffffffffffffffffffffffffffff161480611edb57506000611ed96000809054906101000a900473ffffffffffffffffffffffffffffffffffffffff16612b59565b145b15611eec57611eea6000612b64565b505b6000809054906101000a900473ffffffffffffffffffffffffffffffffffffffff1673ffffffffffffffffffffffffffffffffffffffff166338cc48316000604051602001526040518163ffffffff167c0100000000000000000000000000000000000000000000000000000000028152600401602060405180830381600087803b1515611f7957600080fd5b6102c65a03f11515611f8a57600080fd5b5050506040518051905073ffffffffffffffffffffffffffffffffffffffff16600160009054906101000a900473ffffffffffffffffffffffffffffffffffffffff1673ffffffffffffffffffffffffffffffffffffffff161415156120d3576000809054906101000a900473ffffffffffffffffffffffffffffffffffffffff1673ffffffffffffffffffffffffffffffffffffffff166338cc48316000604051602001526040518163ffffffff167c0100000000000000000000000000000000000000000000000000000000028152600401602060405180830381600087803b151561207757600080fd5b6102c65a03f1151561208857600080fd5b50505060405180519050600160006101000a81548173ffffffffffffffffffffffffffffffffffffffff021916908373ffffffffffffffffffffffffffffffffffffffff1602179055505b60046040518059106120e25750595b90808252806020026020018201604052801561211857816020015b612105613b73565b8152602001906001900390816120fd5790505b50905083600060048110151561212a57fe5b602002015181600081518110151561213e57fe5b9060200190602002018190525083600160048110151561215a57fe5b602002015181600181518110151561216e57fe5b9060200190602002018190525083600260048110151561218a57fe5b602002015181600281518110151561219e57fe5b906020019060200201819052508360036004811015156121ba57fe5b60200201518160038151811015156121ce57fe5b906020019060200201819052506121e6858285612b75565b9150509392505050565b8060036000846000191660001916815260200190815260200160002081600019169055505050565b60008060006001915083855114151561223057600080fd5b600090505b8381101561232457848181518110151561224b57fe5b9060200101517f010000000000000000000000000000000000000000000000000000000000000090047f0100000000000000000000000000000000000000000000000000000000000000027effffffffffffffffffffffffffffffffffffffffffffffffffffffffffffff191686826020811015156122c657fe5b1a7f0100000000000000000000000000000000000000000000000000000000000000027effffffffffffffffffffffffffffffffffffffffffffffffffffffffffffff191614151561231757600091505b8080600101915050612235565b81925050509392505050565b6000806000806000612340613b09565b600061234a613b09565b60206040518059106123595750595b9080825280601f01601f1916602001820160405250925060208a600381518110151561238157fe5b9060200101517f010000000000000000000000000000000000000000000000000000000000000090047f0100000000000000000000000000000000000000000000000000000000000000027f010000000000000000000000000000000000000000000000000000000000000090040360040191506124048a836020866000611dfc565b925060206040518059106124155750595b9080825280601f01601f191660200182016040525090506022820191506124c48a60208c6001860381518110151561244957fe5b9060200101517f010000000000000000000000000000000000000000000000000000000000000090047f0100000000000000000000000000000000000000000000000000000000000000027f010000000000000000000000000000000000000000000000000000000000000090040384016020846000611dfc565b905060208301519450602081015193506124e18b601b87876130d9565b80975081985050508573ffffffffffffffffffffffffffffffffffffffff16896040518082805190602001908083835b6020831015156125365780518252602082019150602081019050602083039250612511565b6001836020036101000a03801982511681845116808217855250505050505090500191505060405180910390206001900473ffffffffffffffffffffffffffffffffffffffff16141561258c5760019750612639565b6125998b601c87876130d9565b80975081985050508573ffffffffffffffffffffffffffffffffffffffff16896040518082805190602001908083835b6020831015156125ee57805182526020820191506020810190506020830392506125c9565b6001836020036101000a03801982511681845116808217855250505050505090500191505060405180910390206001900473ffffffffffffffffffffffffffffffffffffffff161497505b505050505050509392505050565b600080612652613b09565b61265a613b09565b612662613b09565b61266a613b09565b612672613b09565b61267a613b09565b612682613b09565b60028b60018c0181518110151561269557fe5b9060200101517f010000000000000000000000000000000000000000000000000000000000000090047f0100000000000000000000000000000000000000000000000000000000000000027f01000000000000000000000000000000000000000000000000000000000000009004016040518059106127115750595b9080825280601f01601f191660200182016040525096506127378b8b89518a6000611dfc565b50604080518059106127465750595b9080825280601f01601f1916602001820160405250955061276d8b60046040896000611dfc565b50606260405180591061277d5750595b9080825280601f01601f1916602001820160405250945060017f0100000000000000000000000000000000000000000000000000000000000000028560008151811015156127c757fe5b9060200101907effffffffffffffffffffffffffffffffffffffffffffffffffffffffffffff1916908160001a9053506128098b60418c036041886001611dfc565b506040805190810160405280602081526020017ffd94fa71bc0ba10d39d464d0d8f465efeef0a2764e3887fcc9df41ded20f505c81525093506128528460006020886042611dfc565b506128e96002866000604051602001526040518082805190602001908083835b6020831015156128975780518252602082019150602081019050602083039250612872565b6001836020036101000a03801982511681845116808217855250505050505090500191505060206040518083038160008661646e5a03f115156128d957600080fd5b5050604051805190508888612330565b97506000151588151514156129015760009850612b4b565b606060405190810160405280604081526020017f7fb956469c5c9b89840d55b43537e66a98dd4811ea0a27224272c2e5622911e881526020017f537a2f8e86a46baec82864e98dd01e9ccc2f8bc5dfc9cbe5a91a290498dd96e48152509250604260405180591061296f5750595b9080825280601f01601f1916602001820160405250915060fe7f0100000000000000000000000000000000000000000000000000000000000000028260008151811015156129b957fe5b9060200101907effffffffffffffffffffffffffffffffffffffffffffffffffffffffffffff1916908160001a9053506129f98b60036041856001611dfc565b5060028b6045815181101515612a0b57fe5b9060200101517f010000000000000000000000000000000000000000000000000000000000000090047f0100000000000000000000000000000000000000000000000000000000000000027f0100000000000000000000000000000000000000000000000000000000000000900401604051805910612a875750595b9080825280601f01601f19166020018201604052509050612aae8b60448351846000611dfc565b50612b456002836000604051602001526040518082805190602001908083835b602083101515612af35780518252602082019150602081019050602083039250612ace565b6001836020036101000a03801982511681845116808217855250505050505090500191505060206040518083038160008661646e5a03f11515612b3557600080fd5b5050604051805190508285612330565b97508798505b505050505050505092915050565b6000813b9050919050565b6000612b6e61311d565b9050919050565b600080612b80613b09565b60008060009054906101000a900473ffffffffffffffffffffffffffffffffffffffff1673ffffffffffffffffffffffffffffffffffffffff161480612bef57506000612bed6000809054906101000a900473ffffffffffffffffffffffffffffffffffffffff16612b59565b145b15612c0057612bfe6000612b64565b505b6000809054906101000a900473ffffffffffffffffffffffffffffffffffffffff1673ffffffffffffffffffffffffffffffffffffffff166338cc48316000604051602001526040518163ffffffff167c0100000000000000000000000000000000000000000000000000000000028152600401602060405180830381600087803b1515612c8d57600080fd5b6102c65a03f11515612c9e57600080fd5b5050506040518051905073ffffffffffffffffffffffffffffffffffffffff16600160009054906101000a900473ffffffffffffffffffffffffffffffffffffffff1673ffffffffffffffffffffffffffffffffffffffff16141515612de7576000809054906101000a900473ffffffffffffffffffffffffffffffffffffffff1673ffffffffffffffffffffffffffffffffffffffff166338cc48316000604051602001526040518163ffffffff167c0100000000000000000000000000000000000000000000000000000000028152600401602060405180830381600087803b1515612d8b57600080fd5b6102c65a03f11515612d9c57600080fd5b50505060405180519050600160006101000a81548173ffffffffffffffffffffffffffffffffffffffff021916908373ffffffffffffffffffffffffffffffffffffffff1602179055505b600160009054906101000a900473ffffffffffffffffffffffffffffffffffffffff1673ffffffffffffffffffffffffffffffffffffffff16632ef3accc87866000604051602001526040518363ffffffff167c01000000000000000000000000000000000000000000000000000000000281526004018080602001838152602001828103825284818151815260200191508051906020019080838360005b83811015612ea1578082015181840152602081019050612e86565b50505050905090810190601f168015612ece5780820380516001836020036101000a031916815260200191505b509350505050602060405180830381600087803b1515612eed57600080fd5b6102c65a03f11515612efe57600080fd5b505050604051805190509150833a02670de0b6b3a764000001821115612f2a57600060010292506130d0565b612f33856135ac565b9050600160009054906101000a900473ffffffffffffffffffffffffffffffffffffffff1673ffffffffffffffffffffffffffffffffffffffff1663c55c1cb68360008985896000604051602001526040518663ffffffff167c0100000000000000000000000000000000000000000000000000000000028152600401808581526020018060200180602001848152602001838103835286818151815260200191508051906020019080838360005b83811015612ffd578082015181840152602081019050612fe2565b50505050905090810190601f16801561302a5780820380516001836020036101000a031916815260200191505b50838103825285818151815260200191508051906020019080838360005b83811015613063578082015181840152602081019050613048565b50505050905090810190601f1680156130905780820380516001836020036101000a031916815260200191505b5096505050505050506020604051808303818588803b15156130b157600080fd5b6125ee5a03f115156130c257600080fd5b505050506040518051905092505b50509392505050565b60008060008060405188815287602082015286604082015285606082015260208160808360006001610bb8f192508051915050818193509350505094509492505050565b60008061313d731d3b2638a7cc9f2cb3d298a3da7a90b67e5506ed612b59565b11156131de57731d3b2638a7cc9f2cb3d298a3da7a90b67e5506ed6000806101000a81548173ffffffffffffffffffffffffffffffffffffffff021916908373ffffffffffffffffffffffffffffffffffffffff1602179055506131d56040805190810160405280600b81526020017f6574685f6d61696e6e6574000000000000000000000000000000000000000000815250613a97565b600190506135a9565b60006131fd73c03a2615d5efaf5f49f60b7bb6583eaec212fdf1612b59565b111561329e5773c03a2615d5efaf5f49f60b7bb6583eaec212fdf16000806101000a81548173ffffffffffffffffffffffffffffffffffffffff021916908373ffffffffffffffffffffffffffffffffffffffff1602179055506132956040805190810160405280600c81526020017f6574685f726f707374656e330000000000000000000000000000000000000000815250613a97565b600190506135a9565b60006132bd73b7a07bcf2ba2f2703b24c0691b5278999c59ac7e612b59565b111561335e5773b7a07bcf2ba2f2703b24c0691b5278999c59ac7e6000806101000a81548173ffffffffffffffffffffffffffffffffffffffff021916908373ffffffffffffffffffffffffffffffffffffffff1602179055506133556040805190810160405280600981526020017f6574685f6b6f76616e0000000000000000000000000000000000000000000000815250613a97565b600190506135a9565b600061337d73146500cfd35b22e4a392fe0adc06de1a1368ed48612b59565b111561341e5773146500cfd35b22e4a392fe0adc06de1a1368ed486000806101000a81548173ffffffffffffffffffffffffffffffffffffffff021916908373ffffffffffffffffffffffffffffffffffffffff1602179055506134156040805190810160405280600b81526020017f6574685f72696e6b656279000000000000000000000000000000000000000000815250613a97565b600190506135a9565b600061343d736f485c8bf6fc43ea212e93bbf8ce046c7f1cb475612b59565b11156134a057736f485c8bf6fc43ea212e93bbf8ce046c7f1cb4756000806101000a81548173ffffffffffffffffffffffffffffffffffffffff021916908373ffffffffffffffffffffffffffffffffffffffff160217905550600190506135a9565b60006134bf7320e12a1f859b3feae5fb2a0a32c18f5a65555bbf612b59565b1115613522577320e12a1f859b3feae5fb2a0a32c18f5a65555bbf6000806101000a81548173ffffffffffffffffffffffffffffffffffffffff021916908373ffffffffffffffffffffffffffffffffffffffff160217905550600190506135a9565b60006135417351efaf4c8b3c9afbd5ab9f4bbc82784ab6ef8faa612b59565b11156135a4577351efaf4c8b3c9afbd5ab9f4bbc82784ab6ef8faa6000806101000a81548173ffffffffffffffffffffffffffffffffffffffff021916908373ffffffffffffffffffffffffffffffffffffffff160217905550600190506135a9565b600090505b90565b6135b4613b09565b6000806135bf613b5f565b60008060006135cc613b09565b60008060008b51995060009850896040518059106135e75750595b90808252806020026020018201604052801561361d57816020015b61360a613b73565b8152602001906001900390816136025790505b509750600096505b898710156136b6578b8781518110151561363b57fe5b90602001906020020151888881518110151561365357fe5b906020019060200201819052506003601760018a8a81518110151561367457fe5b90602001906020020151510381151561368957fe5b04898981518110151561369857fe5b90602001906020020151510101890198508680600101975050613625565b6000955060808a019450600160ff1689019850886040518059106136d75750595b9080825280601f01601f191660200182016040525093505b85600160ff16111561379957847f0100000000000000000000000000000000000000000000000000000000000000028660018110151561372b57fe5b1a7f010000000000000000000000000000000000000000000000000000000000000002848781518110151561375c57fe5b9060200101907effffffffffffffffffffffffffffffffffffffffffffffffffffffffffffff1916908160001a90535085806001019650506136ef565b600096505b89871015613a8557605f7f01000000000000000000000000000000000000000000000000000000000000000284878151811015156137d857fe5b9060200101907effffffffffffffffffffffffffffffffffffffffffffffffffffffffffffff1916908160001a9053508580600101965050600092505b878781518110151561382357fe5b9060200190602002015151831015613a0e57600060178481151561384357fe5b06141561394b57601883898981518110151561385b57fe5b906020019060200201515103101561388d5782888881518110151561387c57fe5b906020019060200201515103613890565b60175b91506040820191508590505b808603600160ff16111561394a57817f0100000000000000000000000000000000000000000000000000000000000000028187036001811015156138dc57fe5b1a7f010000000000000000000000000000000000000000000000000000000000000002848781518110151561390d57fe5b9060200101907effffffffffffffffffffffffffffffffffffffffffffffffffffffffffffff1916908160001a905350858060010196505061389c565b5b878781518110151561395957fe5b906020019060200201518381518110151561397057fe5b9060200101517f010000000000000000000000000000000000000000000000000000000000000090047f01000000000000000000000000000000000000000000000000000000000000000284878151811015156139c957fe5b9060200101907effffffffffffffffffffffffffffffffffffffffffffffffffffffffffffff1916908160001a90535085806001019650508280600101935050613815565b60ff7f0100000000000000000000000000000000000000000000000000000000000000028487815181101515613a4057fe5b9060200101907effffffffffffffffffffffffffffffffffffffffffffffffffffffffffffff1916908160001a9053508580600101965050868060010197505061379e565b839a5050505050505050505050919050565b8060029080519060200190613aad929190613b87565b5050565b815481835581811511613ad857818360005260206000209182019101613ad79190613c07565b5b505050565b815481835581811511613b0457818360005260206000209182019101613b039190613c07565b5b505050565b602060405190810160405280600081525090565b6080604051908101604052806004905b613b35613b73565b815260200190600190039081613b2d5790505090565b602060405190810160405280600081525090565b602060405190810160405280600081525090565b602060405190810160405280600081525090565b828054600181600116156101000203166002900490600052602060002090601f016020900481019282601f10613bc857805160ff1916838001178555613bf6565b82800160010185558215613bf6579182015b82811115613bf5578251825591602001919060010190613bda565b5b509050613c039190613c07565b5090565b613c2991905b80821115613c25576000816000905550600101613c0d565b5090565b90565b60008060009054906101000a900473ffffffffffffffffffffffffffffffffffffffff1673ffffffffffffffffffffffffffffffffffffffff161480613c9b57506000613c996000809054906101000a900473ffffffffffffffffffffffffffffffffffffffff16612b59565b145b15613cac57613caa6000612b64565b505b6000809054906101000a900473ffffffffffffffffffffffffffffffffffffffff1673ffffffffffffffffffffffffffffffffffffffff166338cc48316000604051602001526040518163ffffffff167c0100000000000000000000000000000000000000000000000000000000028152600401602060405180830381600087803b1515613d3957600080fd5b6102c65a03f11515613d4a57600080fd5b5050506040518051905073ffffffffffffffffffffffffffffffffffffffff16600160009054906101000a900473ffffffffffffffffffffffffffffffffffffffff1673ffffffffffffffffffffffffffffffffffffffff16141515613e93576000809054906101000a900473ffffffffffffffffffffffffffffffffffffffff1673ffffffffffffffffffffffffffffffffffffffff166338cc48316000604051602001526040518163ffffffff167c0100000000000000000000000000000000000000000000000000000000028152600401602060405180830381600087803b1515613e3757600080fd5b6102c65a03f11515613e4857600080fd5b50505060405180519050600160006101000a81548173ffffffffffffffffffffffffffffffffffffffff021916908373ffffffffffffffffffffffffffffffffffffffff1602179055505b600160009054906101000a900473ffffffffffffffffffffffffffffffffffffffff1673ffffffffffffffffffffffffffffffffffffffff1663688dcfd7826040518263ffffffff167c010000000000000000000000000000000000000000000000000000000002815260040180827effffffffffffffffffffffffffffffffffffffffffffffffffffffffffffff19167effffffffffffffffffffffffffffffffffffffffffffffffffffffffffffff19168152602001915050600060405180830381600087803b1515613f6757600080fd5b6102c65a03f11515613f7857600080fd5b505050505600a165627a7a72305820fb496798119f00cc3ec3c9eea90d5b6eaff73c1658bf97ba5e983e4456cd0d420029",
  "source": "pragma solidity >=0.4.0 <0.7.0;\nimport \"../installed_contracts/oraclize-api/contracts/usingOraclize.sol\";\n\ncontract Casino is usingOraclize {\n    address private owner;\n    uint private minimumBet;\n    uint private numberOfBets;\n    uint private maxNumberOfBets;\n    uint private totalBet;\n    uint constant LIMIT_AMOUNT_BETS = 10;\n    uint private numberWinner;\n    mapping(address => uint) private playerBetsNumber;\n    mapping(uint => address[]) private numberBetPlayers;\n    mapping(address => bool) private activePlayers;\n\n    function Casino(uint _minimumBet, uint _maxNumberOfBets) public {\n        owner = msg.sender;\n\n        numberOfBets = 0;\n        totalBet = 0;\n        if (_minimumBet > 0) {\n            minimumBet = _minimumBet;\n        }\n\n        if (_maxNumberOfBets > 0 && _maxNumberOfBets <= LIMIT_AMOUNT_BETS) {\n            maxNumberOfBets = _maxNumberOfBets;\n        }\n\n        //OAR = OraclizeAddrResolverI(0x6f485C8BF6fc43eA212E93BBF8ce046C7f1cb475);\n        //OAR = OraclizeAddrResolverI(0x3dCB1BeeD059bc733192E7b9a62AF4C62836d3da);\n        OAR = OraclizeAddrResolverI(0x5F930eEf71cDe47400ff5b3CebF714E031d8D302);\n        oraclize_setProof(proofType_Ledger);\n        //oraclize_setProof(proofType_TLSNotary | proofStorage_IPFS);\n    }\n\n    function bet(uint numberToBet) payable public {\n        assert(numberOfBets < maxNumberOfBets);\n        assert(checkPlayerExists(msg.sender) == false);\n        assert(numberToBet >= 1 && numberToBet <= 10);\n        assert(msg.value >= minimumBet);\n\n        playerBetsNumber[msg.sender] = numberToBet;\n        activePlayers[msg.sender] = true;\n\n        numberBetPlayers[numberToBet].push(msg.sender);\n\n        numberOfBets += 1;\n        totalBet += msg.value;\n\n        if (numberOfBets >= maxNumberOfBets) {\n            generateNumberWinner();\n        }\n    }\n\n    function checkPlayerExists(address player) public view returns (bool) {\n       return activePlayers[player];\n    }\n\n    modifier onEndGame() {\n        require(numberOfBets <=  maxNumberOfBets);\n        _;\n    }\n\n    event GenerateNumberWinner(bytes32 queryId);\n    function generateNumberWinner() payable onEndGame public {\n        uint numberRandomBytes = 7;\n        uint delay = 0;\n        uint callbackGas = 200000;\n\n        bytes32 queryId = oraclize_newRandomDSQuery(delay, numberRandomBytes, callbackGas);\n        GenerateNumberWinner(queryId);\n        queryId; // gets rid of the compiler warning about unused variable.\n    }\n\n    event CallbackEvent(bytes32 _queryId, string _result, bytes _proof);\n    event Winner(uint numberWinner);\n    function __callback(bytes32 _queryId, string _result, bytes _proof) oraclize_randomDS_proofVerify(_queryId, _result, _proof) onEndGame public {\n        // Checks that the sender of this callback was in fact oraclize\n        CallbackEvent(_queryId, _result,_proof);\n        assert(msg.sender == oraclize_cbAddress());\n\n        numberWinner = (uint(keccak256(_result)) % 10 + 1);\n        Winner(numberWinner);\n\n        distributePrizes();\n    }\n    // function __callback(bytes32 _queryId, string _result, bytes _proof) onEndGame public {\n    //     // Checks that the sender of this callback was in fact oraclize\n    //     assert(msg.sender == oraclize_cbAddress());\n\n    //     numberWinner = (uint(keccak256(_result)) % 10 + 1);\n    //     distributePrizes();\n    // }\n\n    function distributePrizes() onEndGame public {\n       uint winnerEtherAmount = totalBet / numberBetPlayers[numberWinner].length; // How much each winner gets\n\n       // Loop through all the winners to send the corresponding prize for each one\n       for (uint i = 0; i < numberBetPlayers[numberWinner].length; i++) {\n           numberBetPlayers[numberWinner][i].transfer(winnerEtherAmount);\n       }\n\n       // Delete all the players for each number\n       for (uint j = 1; j <= 10; j++) {\n           numberBetPlayers[j].length = 0;\n       }\n\n       totalBet = 0;\n       numberOfBets = 0;\n    }\n}",
  "sourcePath": "/Users/denisputnam/git/mi4-exercise8/contracts/Casino.sol",
  "compiler": {
    "name": "solc",
    "version": "0.4.18+commit.9cf6e910.Emscripten.clang"
  },
  "schemaVersion": "3.0.23",
  "updatedAt": "2020-03-21T00:05:21.891Z",
  "networkType": "ethereum",
  "devdoc": {
    "methods": {}
  },
  "userdoc": {
    "methods": {}
  }
}